{
  "_format": "hh-sol-artifact-1",
  "contractName": "ContributeProjects",
  "sourceName": "contracts/ContributeProjects.sol",
  "abi": [
    {
      "inputs": [
        {
          "internalType": "uint256",
          "name": "_id",
          "type": "uint256"
        }
      ],
      "name": "contribute",
      "outputs": [],
      "stateMutability": "payable",
      "type": "function"
    },
    {
      "inputs": [
        {
          "internalType": "string",
          "name": "_description",
          "type": "string"
        }
      ],
      "name": "createProject",
      "outputs": [
        {
          "internalType": "uint256",
          "name": "projectId",
          "type": "uint256"
        }
      ],
      "stateMutability": "nonpayable",
      "type": "function"
    },
    {
      "inputs": [],
      "name": "getLatestProject",
      "outputs": [
        {
          "internalType": "uint256",
          "name": "ProjectID",
          "type": "uint256"
        }
      ],
      "stateMutability": "view",
      "type": "function"
    },
    {
      "inputs": [
        {
          "internalType": "uint256",
          "name": "_projectId",
          "type": "uint256"
        }
      ],
      "name": "getProjectById",
      "outputs": [
        {
          "internalType": "string",
          "name": "description",
          "type": "string"
        },
        {
          "internalType": "address",
          "name": "owner",
          "type": "address"
        },
        {
          "internalType": "uint256",
          "name": "balance",
          "type": "uint256"
        }
      ],
      "stateMutability": "view",
      "type": "function"
    },
    {
      "inputs": [],
      "name": "getProjects",
      "outputs": [
        {
          "components": [
            {
              "internalType": "string",
              "name": "description",
              "type": "string"
            },
            {
              "internalType": "address",
              "name": "owner",
              "type": "address"
            },
            {
              "internalType": "uint256",
              "name": "balance",
              "type": "uint256"
            }
          ],
          "internalType": "struct ContributeProjects.Project[]",
          "name": "",
          "type": "tuple[]"
        }
      ],
      "stateMutability": "view",
      "type": "function"
    },
    {
      "inputs": [],
      "name": "latestProjectId",
      "outputs": [
        {
          "internalType": "uint256",
          "name": "",
          "type": "uint256"
        }
      ],
      "stateMutability": "view",
      "type": "function"
    },
    {
      "inputs": [
        {
          "internalType": "uint256",
          "name": "",
          "type": "uint256"
        }
      ],
      "name": "projects",
      "outputs": [
        {
          "internalType": "string",
          "name": "description",
          "type": "string"
        },
        {
          "internalType": "address",
          "name": "owner",
          "type": "address"
        },
        {
          "internalType": "uint256",
          "name": "balance",
          "type": "uint256"
        }
      ],
      "stateMutability": "view",
      "type": "function"
    }
  ],
  "bytecode": "0x608060405234801561001057600080fd5b5061128e806100206000396000f3fe6080604052600436106100705760003560e01c80635b7ce55a1161004e5780635b7ce55a1461011c578063bee5cdca14610147578063c1cbbca714610186578063dcc60128146101a257610070565b8063107046bd1461007557806315ee4df1146100b457806321a542fc146100f1575b600080fd5b34801561008157600080fd5b5061009c60048036038101906100979190610882565b6101cd565b6040516100ab9392919061098f565b60405180910390f35b3480156100c057600080fd5b506100db60048036038101906100d69190610b02565b61029f565b6040516100e89190610b4b565b60405180910390f35b3480156100fd57600080fd5b50610106610373565b6040516101139190610b4b565b60405180910390f35b34801561012857600080fd5b50610131610379565b60405161013e9190610b4b565b60405180910390f35b34801561015357600080fd5b5061016e60048036038101906101699190610882565b610383565b60405161017d9392919061098f565b60405180910390f35b6101a0600480360381019061019b9190610882565b61050a565b005b3480156101ae57600080fd5b506101b7610641565b6040516101c49190610ce0565b60405180910390f35b60006020528060005260406000206000915090508060000180546101f090610d31565b80601f016020809104026020016040519081016040528092919081815260200182805461021c90610d31565b80156102695780601f1061023e57610100808354040283529160200191610269565b820191906000526020600020905b81548152906001019060200180831161024c57829003601f168201915b5050505050908060010160009054906101000a900473ffffffffffffffffffffffffffffffffffffffff16908060020154905083565b6000600160008154809291906102b490610d91565b919050555060405180606001604052808381526020013373ffffffffffffffffffffffffffffffffffffffff1681526020016000815250600080600154815260200190815260200160002060008201518160000190816103149190610f85565b5060208201518160010160006101000a81548173ffffffffffffffffffffffffffffffffffffffff021916908373ffffffffffffffffffffffffffffffffffffffff160217905550604082015181600201559050506001549050919050565b60015481565b6000600154905090565b60606000806000841015801561039b57506001548411155b6103da576040517f08c379a00000000000000000000000000000000000000000000000000000000081526004016103d1906110a3565b60405180910390fd5b600080600086815260200190815260200160002060405180606001604052908160008201805461040990610d31565b80601f016020809104026020016040519081016040528092919081815260200182805461043590610d31565b80156104825780601f1061045757610100808354040283529160200191610482565b820191906000526020600020905b81548152906001019060200180831161046557829003601f168201915b505050505081526020016001820160009054906101000a900473ffffffffffffffffffffffffffffffffffffffff1673ffffffffffffffffffffffffffffffffffffffff1673ffffffffffffffffffffffffffffffffffffffff1681526020016002820154815250509050806000015181602001518260400151935093509350509193909250565b600034101561054e576040517f08c379a000000000000000000000000000000000000000000000000000000000815260040161054590611135565b60405180910390fd5b60008060008381526020019081526020016000209050600081600001805461057590610d31565b9050116105b7576040517f08c379a00000000000000000000000000000000000000000000000000000000081526004016105ae906111a1565b60405180910390fd5b8060010160009054906101000a900473ffffffffffffffffffffffffffffffffffffffff1673ffffffffffffffffffffffffffffffffffffffff166108fc349081150290604051600060405180830381858888f19350505050158015610621573d6000803e3d6000fd5b503481600201600082825461063691906111c1565b925050819055505050565b6060600060015467ffffffffffffffff811115610661576106606109d7565b5b60405190808252806020026020018201604052801561069a57816020015b610687610801565b81526020019060019003908161067f5790505b5090506000600190505b60015481116107f9576000808281526020019081526020016000206040518060600160405290816000820180546106da90610d31565b80601f016020809104026020016040519081016040528092919081815260200182805461070690610d31565b80156107535780601f1061072857610100808354040283529160200191610753565b820191906000526020600020905b81548152906001019060200180831161073657829003601f168201915b505050505081526020016001820160009054906101000a900473ffffffffffffffffffffffffffffffffffffffff1673ffffffffffffffffffffffffffffffffffffffff1673ffffffffffffffffffffffffffffffffffffffff168152602001600282015481525050826001836107ca91906111f5565b815181106107db576107da611229565b5b602002602001018190525080806107f190610d91565b9150506106a4565b508091505090565b604051806060016040528060608152602001600073ffffffffffffffffffffffffffffffffffffffff168152602001600081525090565b6000604051905090565b600080fd5b600080fd5b6000819050919050565b61085f8161084c565b811461086a57600080fd5b50565b60008135905061087c81610856565b92915050565b60006020828403121561089857610897610842565b5b60006108a68482850161086d565b91505092915050565b600081519050919050565b600082825260208201905092915050565b60005b838110156108e95780820151818401526020810190506108ce565b60008484015250505050565b6000601f19601f8301169050919050565b6000610911826108af565b61091b81856108ba565b935061092b8185602086016108cb565b610934816108f5565b840191505092915050565b600073ffffffffffffffffffffffffffffffffffffffff82169050919050565b600061096a8261093f565b9050919050565b61097a8161095f565b82525050565b6109898161084c565b82525050565b600060608201905081810360008301526109a98186610906565b90506109b86020830185610971565b6109c56040830184610980565b949350505050565b600080fd5b600080fd5b7f4e487b7100000000000000000000000000000000000000000000000000000000600052604160045260246000fd5b610a0f826108f5565b810181811067ffffffffffffffff82111715610a2e57610a2d6109d7565b5b80604052505050565b6000610a41610838565b9050610a4d8282610a06565b919050565b600067ffffffffffffffff821115610a6d57610a6c6109d7565b5b610a76826108f5565b9050602081019050919050565b82818337600083830152505050565b6000610aa5610aa084610a52565b610a37565b905082815260208101848484011115610ac157610ac06109d2565b5b610acc848285610a83565b509392505050565b600082601f830112610ae957610ae86109cd565b5b8135610af9848260208601610a92565b91505092915050565b600060208284031215610b1857610b17610842565b5b600082013567ffffffffffffffff811115610b3657610b35610847565b5b610b4284828501610ad4565b91505092915050565b6000602082019050610b606000830184610980565b92915050565b600081519050919050565b600082825260208201905092915050565b6000819050602082019050919050565b600082825260208201905092915050565b6000610bae826108af565b610bb88185610b92565b9350610bc88185602086016108cb565b610bd1816108f5565b840191505092915050565b610be58161095f565b82525050565b610bf48161084c565b82525050565b60006060830160008301518482036000860152610c178282610ba3565b9150506020830151610c2c6020860182610bdc565b506040830151610c3f6040860182610beb565b508091505092915050565b6000610c568383610bfa565b905092915050565b6000602082019050919050565b6000610c7682610b66565b610c808185610b71565b935083602082028501610c9285610b82565b8060005b85811015610cce5784840389528151610caf8582610c4a565b9450610cba83610c5e565b925060208a01995050600181019050610c96565b50829750879550505050505092915050565b60006020820190508181036000830152610cfa8184610c6b565b905092915050565b7f4e487b7100000000000000000000000000000000000000000000000000000000600052602260045260246000fd5b60006002820490506001821680610d4957607f821691505b602082108103610d5c57610d5b610d02565b5b50919050565b7f4e487b7100000000000000000000000000000000000000000000000000000000600052601160045260246000fd5b6000610d9c8261084c565b91507fffffffffffffffffffffffffffffffffffffffffffffffffffffffffffffffff8203610dce57610dcd610d62565b5b600182019050919050565b60008190508160005260206000209050919050565b60006020601f8301049050919050565b600082821b905092915050565b600060088302610e3b7fffffffffffffffffffffffffffffffffffffffffffffffffffffffffffffffff82610dfe565b610e458683610dfe565b95508019841693508086168417925050509392505050565b6000819050919050565b6000610e82610e7d610e788461084c565b610e5d565b61084c565b9050919050565b6000819050919050565b610e9c83610e67565b610eb0610ea882610e89565b848454610e0b565b825550505050565b600090565b610ec5610eb8565b610ed0818484610e93565b505050565b5b81811015610ef457610ee9600082610ebd565b600181019050610ed6565b5050565b601f821115610f3957610f0a81610dd9565b610f1384610dee565b81016020851015610f22578190505b610f36610f2e85610dee565b830182610ed5565b50505b505050565b600082821c905092915050565b6000610f5c60001984600802610f3e565b1980831691505092915050565b6000610f758383610f4b565b9150826002028217905092915050565b610f8e826108af565b67ffffffffffffffff811115610fa757610fa66109d7565b5b610fb18254610d31565b610fbc828285610ef8565b600060209050601f831160018114610fef5760008415610fdd578287015190505b610fe78582610f69565b86555061104f565b601f198416610ffd86610dd9565b60005b8281101561102557848901518255600182019150602085019450602081019050611000565b86831015611042578489015161103e601f891682610f4b565b8355505b6001600288020188555050505b505050505050565b7f496e76616c69642070726f6a6563742049440000000000000000000000000000600082015250565b600061108d6012836108ba565b915061109882611057565b602082019050919050565b600060208201905081810360008301526110bc81611080565b9050919050565b7f436f6e747269627574696f6e20616d6f756e74206d757374206265206772656160008201527f746572207468616e206f7220657175616c20746f203000000000000000000000602082015250565b600061111f6036836108ba565b915061112a826110c3565b604082019050919050565b6000602082019050818103600083015261114e81611112565b9050919050565b7f50726f6a65637420646f6573206e6f7420657869737400000000000000000000600082015250565b600061118b6016836108ba565b915061119682611155565b602082019050919050565b600060208201905081810360008301526111ba8161117e565b9050919050565b60006111cc8261084c565b91506111d78361084c565b92508282019050808211156111ef576111ee610d62565b5b92915050565b60006112008261084c565b915061120b8361084c565b925082820390508181111561122357611222610d62565b5b92915050565b7f4e487b7100000000000000000000000000000000000000000000000000000000600052603260045260246000fdfea2646970667358221220dd460db3851840df965156ee9ae1a13407b48537c87ebb61e28e7fc4192bccdc64736f6c63430008110033",
  "linkReferences": {},
  "deployedLinkReferences": {}
}