{
  "_format": "hh-sol-artifact-1",
  "contractName": "ECommerce_Courses",
  "sourceName": "contracts/Courses.sol",
  "abi": [
    {
      "anonymous": false,
      "inputs": [
        {
          "indexed": true,
          "internalType": "uint256",
          "name": "courseId",
          "type": "uint256"
        },
        {
          "indexed": false,
          "internalType": "address",
          "name": "buyer",
          "type": "address"
        },
        {
          "indexed": false,
          "internalType": "uint256",
          "name": "price",
          "type": "uint256"
        }
      ],
      "name": "CoursePurchased",
      "type": "event"
    },
    {
      "anonymous": false,
      "inputs": [
        {
          "indexed": true,
          "internalType": "uint256",
          "name": "courseId",
          "type": "uint256"
        },
        {
          "indexed": false,
          "internalType": "string",
          "name": "description",
          "type": "string"
        },
        {
          "indexed": false,
          "internalType": "address",
          "name": "uploader",
          "type": "address"
        },
        {
          "indexed": false,
          "internalType": "uint256",
          "name": "price",
          "type": "uint256"
        }
      ],
      "name": "CourseUploaded",
      "type": "event"
    },
    {
      "inputs": [
        {
          "internalType": "uint256",
          "name": "",
          "type": "uint256"
        }
      ],
      "name": "courses",
      "outputs": [
        {
          "internalType": "string",
          "name": "description",
          "type": "string"
        },
        {
          "internalType": "address",
          "name": "uploader",
          "type": "address"
        },
        {
          "internalType": "uint256",
          "name": "price",
          "type": "uint256"
        },
        {
          "internalType": "bool",
          "name": "purchased",
          "type": "bool"
        }
      ],
      "stateMutability": "view",
      "type": "function"
    },
    {
      "inputs": [],
      "name": "latestCourseId",
      "outputs": [
        {
          "internalType": "uint256",
          "name": "",
          "type": "uint256"
        }
      ],
      "stateMutability": "view",
      "type": "function"
    },
    {
      "inputs": [
        {
          "internalType": "uint256",
          "name": "_courseId",
          "type": "uint256"
        }
      ],
      "name": "purchase",
      "outputs": [],
      "stateMutability": "payable",
      "type": "function"
    },
    {
      "inputs": [
        {
          "internalType": "string",
          "name": "_description",
          "type": "string"
        },
        {
          "internalType": "uint256",
          "name": "_price",
          "type": "uint256"
        }
      ],
      "name": "uploadCourse",
      "outputs": [
        {
          "internalType": "uint256",
          "name": "",
          "type": "uint256"
        }
      ],
      "stateMutability": "nonpayable",
      "type": "function"
    }
  ],
  "bytecode": "0x608060405234801561001057600080fd5b50610cad806100206000396000f3fe60806040526004361061003f5760003560e01c8063120c70bf14610044578063514ee12b1461008157806396f979d2146100ac578063efef39a1146100ec575b600080fd5b34801561005057600080fd5b5061006b6004803603810190610066919061060b565b610108565b6040516100789190610676565b60405180910390f35b34801561008d57600080fd5b50610096610243565b6040516100a39190610676565b60405180910390f35b3480156100b857600080fd5b506100d360048036038101906100ce9190610691565b610249565b6040516100e39493929190610799565b60405180910390f35b61010660048036038101906101019190610691565b61032e565b005b60006001600081548092919061011d90610814565b919050555060405180608001604052808481526020013373ffffffffffffffffffffffffffffffffffffffff16815260200183815260200160001515815250600080600154815260200190815260200160002060008201518160000190816101859190610a68565b5060208201518160010160006101000a81548173ffffffffffffffffffffffffffffffffffffffff021916908373ffffffffffffffffffffffffffffffffffffffff1602179055506040820151816002015560608201518160030160006101000a81548160ff0219169083151502179055509050506001547f784cf0b3bafb6544c3bb08f5ffc49540058474d7c87776fe3ceeba20aea41ad584338560405161023093929190610b3a565b60405180910390a2600154905092915050565b60015481565b600060205280600052604060002060009150905080600001805461026c9061088b565b80601f01602080910402602001604051908101604052809291908181526020018280546102989061088b565b80156102e55780601f106102ba576101008083540402835291602001916102e5565b820191906000526020600020905b8154815290600101906020018083116102c857829003601f168201915b5050505050908060010160009054906101000a900473ffffffffffffffffffffffffffffffffffffffff16908060020154908060030160009054906101000a900460ff16905084565b6000806000838152602001908152602001600020905060006064600a346103559190610b78565b61035f9190610be9565b90506000813461036f9190610c1a565b9050734a0051552a8a8da192f9ab73b7245e4a233e353a73ffffffffffffffffffffffffffffffffffffffff166108fc839081150290604051600060405180830381858888f193505050501580156103cb573d6000803e3d6000fd5b508260010160009054906101000a900473ffffffffffffffffffffffffffffffffffffffff1673ffffffffffffffffffffffffffffffffffffffff166108fc829081150290604051600060405180830381858888f19350505050158015610436573d6000803e3d6000fd5b50837f6d846848ed199e5a5cc3af1d2846d9e5aa7d59c948360982923973138cbc241b33856002015460405161046d929190610c4e565b60405180910390a250505050565b6000604051905090565b600080fd5b600080fd5b600080fd5b600080fd5b6000601f19601f8301169050919050565b7f4e487b7100000000000000000000000000000000000000000000000000000000600052604160045260246000fd5b6104e282610499565b810181811067ffffffffffffffff82111715610501576105006104aa565b5b80604052505050565b600061051461047b565b905061052082826104d9565b919050565b600067ffffffffffffffff8211156105405761053f6104aa565b5b61054982610499565b9050602081019050919050565b82818337600083830152505050565b600061057861057384610525565b61050a565b90508281526020810184848401111561059457610593610494565b5b61059f848285610556565b509392505050565b600082601f8301126105bc576105bb61048f565b5b81356105cc848260208601610565565b91505092915050565b6000819050919050565b6105e8816105d5565b81146105f357600080fd5b50565b600081359050610605816105df565b92915050565b6000806040838503121561062257610621610485565b5b600083013567ffffffffffffffff8111156106405761063f61048a565b5b61064c858286016105a7565b925050602061065d858286016105f6565b9150509250929050565b610670816105d5565b82525050565b600060208201905061068b6000830184610667565b92915050565b6000602082840312156106a7576106a6610485565b5b60006106b5848285016105f6565b91505092915050565b600081519050919050565b600082825260208201905092915050565b60005b838110156106f85780820151818401526020810190506106dd565b60008484015250505050565b600061070f826106be565b61071981856106c9565b93506107298185602086016106da565b61073281610499565b840191505092915050565b600073ffffffffffffffffffffffffffffffffffffffff82169050919050565b60006107688261073d565b9050919050565b6107788161075d565b82525050565b60008115159050919050565b6107938161077e565b82525050565b600060808201905081810360008301526107b38187610704565b90506107c2602083018661076f565b6107cf6040830185610667565b6107dc606083018461078a565b95945050505050565b7f4e487b7100000000000000000000000000000000000000000000000000000000600052601160045260246000fd5b600061081f826105d5565b91507fffffffffffffffffffffffffffffffffffffffffffffffffffffffffffffffff8203610851576108506107e5565b5b600182019050919050565b7f4e487b7100000000000000000000000000000000000000000000000000000000600052602260045260246000fd5b600060028204905060018216806108a357607f821691505b6020821081036108b6576108b561085c565b5b50919050565b60008190508160005260206000209050919050565b60006020601f8301049050919050565b600082821b905092915050565b60006008830261091e7fffffffffffffffffffffffffffffffffffffffffffffffffffffffffffffffff826108e1565b61092886836108e1565b95508019841693508086168417925050509392505050565b6000819050919050565b600061096561096061095b846105d5565b610940565b6105d5565b9050919050565b6000819050919050565b61097f8361094a565b61099361098b8261096c565b8484546108ee565b825550505050565b600090565b6109a861099b565b6109b3818484610976565b505050565b5b818110156109d7576109cc6000826109a0565b6001810190506109b9565b5050565b601f821115610a1c576109ed816108bc565b6109f6846108d1565b81016020851015610a05578190505b610a19610a11856108d1565b8301826109b8565b50505b505050565b600082821c905092915050565b6000610a3f60001984600802610a21565b1980831691505092915050565b6000610a588383610a2e565b9150826002028217905092915050565b610a71826106be565b67ffffffffffffffff811115610a8a57610a896104aa565b5b610a94825461088b565b610a9f8282856109db565b600060209050601f831160018114610ad25760008415610ac0578287015190505b610aca8582610a4c565b865550610b32565b601f198416610ae0866108bc565b60005b82811015610b0857848901518255600182019150602085019450602081019050610ae3565b86831015610b255784890151610b21601f891682610a2e565b8355505b6001600288020188555050505b505050505050565b60006060820190508181036000830152610b548186610704565b9050610b63602083018561076f565b610b706040830184610667565b949350505050565b6000610b83826105d5565b9150610b8e836105d5565b9250828202610b9c816105d5565b91508282048414831517610bb357610bb26107e5565b5b5092915050565b7f4e487b7100000000000000000000000000000000000000000000000000000000600052601260045260246000fd5b6000610bf4826105d5565b9150610bff836105d5565b925082610c0f57610c0e610bba565b5b828204905092915050565b6000610c25826105d5565b9150610c30836105d5565b9250828203905081811115610c4857610c476107e5565b5b92915050565b6000604082019050610c63600083018561076f565b610c706020830184610667565b939250505056fea2646970667358221220e73736566e4c46749b4d2e4cf61f6d1177a0968a5827dea14b4cba71d5c1ceec64736f6c63430008110033",
  "linkReferences": {},
  "deployedLinkReferences": {}
}