{
  "_format": "hh-sol-artifact-1",
  "contractName": "FreelanceMarketplace",
  "sourceName": "contracts/Project.sol",
  "abi": [
    {
      "anonymous": false,
      "inputs": [
        {
          "indexed": true,
          "internalType": "uint256",
          "name": "projectId",
          "type": "uint256"
        },
        {
          "indexed": false,
          "internalType": "address",
          "name": "freelancer",
          "type": "address"
        },
        {
          "indexed": false,
          "internalType": "uint256",
          "name": "amount",
          "type": "uint256"
        }
      ],
      "name": "PaymentReleased",
      "type": "event"
    },
    {
      "anonymous": false,
      "inputs": [
        {
          "indexed": true,
          "internalType": "uint256",
          "name": "projectId",
          "type": "uint256"
        },
        {
          "indexed": false,
          "internalType": "address",
          "name": "freelancer",
          "type": "address"
        }
      ],
      "name": "ProjectTaken",
      "type": "event"
    },
    {
      "anonymous": false,
      "inputs": [
        {
          "indexed": true,
          "internalType": "uint256",
          "name": "projectId",
          "type": "uint256"
        },
        {
          "indexed": false,
          "internalType": "string",
          "name": "title",
          "type": "string"
        },
        {
          "indexed": false,
          "internalType": "string",
          "name": "skillsRequired",
          "type": "string"
        },
        {
          "indexed": false,
          "internalType": "string",
          "name": "duration",
          "type": "string"
        },
        {
          "indexed": false,
          "internalType": "string",
          "name": "deadline",
          "type": "string"
        },
        {
          "indexed": false,
          "internalType": "uint256",
          "name": "budget",
          "type": "uint256"
        },
        {
          "indexed": false,
          "internalType": "address",
          "name": "owner",
          "type": "address"
        }
      ],
      "name": "ProjectUploaded",
      "type": "event"
    },
    {
      "inputs": [],
      "name": "DHUBXON_WALLET",
      "outputs": [
        {
          "internalType": "address",
          "name": "",
          "type": "address"
        }
      ],
      "stateMutability": "view",
      "type": "function"
    },
    {
      "inputs": [],
      "name": "balanceinwei",
      "outputs": [
        {
          "internalType": "uint256",
          "name": "",
          "type": "uint256"
        }
      ],
      "stateMutability": "view",
      "type": "function"
    },
    {
      "inputs": [],
      "name": "latestProjectId",
      "outputs": [
        {
          "internalType": "uint256",
          "name": "",
          "type": "uint256"
        }
      ],
      "stateMutability": "view",
      "type": "function"
    },
    {
      "inputs": [
        {
          "internalType": "uint256",
          "name": "",
          "type": "uint256"
        }
      ],
      "name": "projects",
      "outputs": [
        {
          "internalType": "uint256",
          "name": "projectId",
          "type": "uint256"
        },
        {
          "internalType": "string",
          "name": "title",
          "type": "string"
        },
        {
          "internalType": "string",
          "name": "skillsRequired",
          "type": "string"
        },
        {
          "internalType": "string",
          "name": "duration",
          "type": "string"
        },
        {
          "internalType": "string",
          "name": "deadline",
          "type": "string"
        },
        {
          "internalType": "uint256",
          "name": "budget",
          "type": "uint256"
        },
        {
          "internalType": "address",
          "name": "owner",
          "type": "address"
        },
        {
          "internalType": "address",
          "name": "freelancer",
          "type": "address"
        },
        {
          "internalType": "bool",
          "name": "taken",
          "type": "bool"
        }
      ],
      "stateMutability": "view",
      "type": "function"
    },
    {
      "inputs": [
        {
          "internalType": "uint256",
          "name": "_projectId",
          "type": "uint256"
        }
      ],
      "name": "releasePayment",
      "outputs": [],
      "stateMutability": "payable",
      "type": "function"
    },
    {
      "inputs": [
        {
          "internalType": "uint256",
          "name": "_projectId",
          "type": "uint256"
        }
      ],
      "name": "releasePaymenttofreelancer",
      "outputs": [],
      "stateMutability": "payable",
      "type": "function"
    },
    {
      "inputs": [
        {
          "internalType": "uint256",
          "name": "_projectId",
          "type": "uint256"
        },
        {
          "internalType": "address",
          "name": "_freelancer",
          "type": "address"
        }
      ],
      "name": "takeProject",
      "outputs": [],
      "stateMutability": "payable",
      "type": "function"
    },
    {
      "inputs": [
        {
          "internalType": "string",
          "name": "_title",
          "type": "string"
        },
        {
          "internalType": "string",
          "name": "_skillsRequired",
          "type": "string"
        },
        {
          "internalType": "string",
          "name": "_duration",
          "type": "string"
        },
        {
          "internalType": "string",
          "name": "_deadline",
          "type": "string"
        },
        {
          "internalType": "uint256",
          "name": "_budget",
          "type": "uint256"
        }
      ],
      "name": "uploadProject",
      "outputs": [
        {
          "internalType": "uint256",
          "name": "",
          "type": "uint256"
        }
      ],
      "stateMutability": "nonpayable",
      "type": "function"
    }
  ],
  "bytecode": "0x608060405234801561001057600080fd5b506118b3806100206000396000f3fe60806040526004361061007b5760003560e01c806388685cd91161004e57806388685cd914610158578063abc88df714610174578063eeb547d81461019f578063faf9a0e0146101bb5761007b565b80630d2b25b014610080578063107046bd146100bd57806321a542fc146101025780633604f3b61461012d575b600080fd5b34801561008c57600080fd5b506100a760048036038101906100a29190610d3f565b6101d7565b6040516100b49190610e39565b60405180910390f35b3480156100c957600080fd5b506100e460048036038101906100df9190610e54565b6103e8565b6040516100f999989796959493929190610f5c565b60405180910390f35b34801561010e57600080fd5b506101176106a3565b6040516101249190610e39565b60405180910390f35b34801561013957600080fd5b506101426106a9565b60405161014f9190611005565b60405180910390f35b610172600480360381019061016d9190610e54565b6106c1565b005b34801561018057600080fd5b5061018961097e565b6040516101969190610e39565b60405180910390f35b6101b960048036038101906101b4919061104c565b610984565b005b6101d560048036038101906101d09190610e54565b610b77565b005b6000600260008154809291906101ec906110bb565b919050555060405180610120016040528060025481526020018781526020018681526020018581526020018481526020018381526020013373ffffffffffffffffffffffffffffffffffffffff168152602001600073ffffffffffffffffffffffffffffffffffffffff16815260200160001515815250600160006002548152602001908152602001600020600082015181600001556020820151816001019081610297919061130f565b5060408201518160020190816102ad919061130f565b5060608201518160030190816102c3919061130f565b5060808201518160040190816102d9919061130f565b5060a0820151816005015560c08201518160060160006101000a81548173ffffffffffffffffffffffffffffffffffffffff021916908373ffffffffffffffffffffffffffffffffffffffff16021790555060e08201518160070160006101000a81548173ffffffffffffffffffffffffffffffffffffffff021916908373ffffffffffffffffffffffffffffffffffffffff1602179055506101008201518160070160146101000a81548160ff0219169083151502179055509050506002547f8e78dbffd434d73db0085f1ce8c3e7eaa0eeba918d0c29664857e7c6cf25535f8787878787336040516103d2969594939291906113e1565b60405180910390a2600254905095945050505050565b600160205280600052604060002060009150905080600001549080600101805461041190611132565b80601f016020809104026020016040519081016040528092919081815260200182805461043d90611132565b801561048a5780601f1061045f5761010080835404028352916020019161048a565b820191906000526020600020905b81548152906001019060200180831161046d57829003601f168201915b50505050509080600201805461049f90611132565b80601f01602080910402602001604051908101604052809291908181526020018280546104cb90611132565b80156105185780601f106104ed57610100808354040283529160200191610518565b820191906000526020600020905b8154815290600101906020018083116104fb57829003601f168201915b50505050509080600301805461052d90611132565b80601f016020809104026020016040519081016040528092919081815260200182805461055990611132565b80156105a65780601f1061057b576101008083540402835291602001916105a6565b820191906000526020600020905b81548152906001019060200180831161058957829003601f168201915b5050505050908060040180546105bb90611132565b80601f01602080910402602001604051908101604052809291908181526020018280546105e790611132565b80156106345780601f1061060957610100808354040283529160200191610634565b820191906000526020600020905b81548152906001019060200180831161061757829003601f168201915b5050505050908060050154908060060160009054906101000a900473ffffffffffffffffffffffffffffffffffffffff16908060070160009054906101000a900473ffffffffffffffffffffffffffffffffffffffff16908060070160149054906101000a900460ff16905089565b60025481565b734a0051552a8a8da192f9ab73b7245e4a233e353a81565b60006001600083815260200190815260200160002090508060070160149054906101000a900460ff16610729576040517f08c379a0000000000000000000000000000000000000000000000000000000008152600401610720906114aa565b60405180910390fd5b8060060160009054906101000a900473ffffffffffffffffffffffffffffffffffffffff1673ffffffffffffffffffffffffffffffffffffffff163373ffffffffffffffffffffffffffffffffffffffff16146107bb576040517f08c379a00000000000000000000000000000000000000000000000000000000081526004016107b29061153c565b60405180910390fd5b600034905060006064605a836107d1919061155c565b6107db91906115cd565b9050600081836107eb91906115fe565b905060008460070160009054906101000a900473ffffffffffffffffffffffffffffffffffffffff1673ffffffffffffffffffffffffffffffffffffffff166108fc849081150290604051600060405180830381858888f1935050505090508061088a576040517f08c379a0000000000000000000000000000000000000000000000000000000008152600401610881906116a4565b60405180910390fd5b6000734a0051552a8a8da192f9ab73b7245e4a233e353a73ffffffffffffffffffffffffffffffffffffffff166108fc849081150290604051600060405180830381858888f19350505050905080610917576040517f08c379a000000000000000000000000000000000000000000000000000000000815260040161090e90611736565b60405180910390fd5b867f21d71db5be59bb9fa133895586b7404307dd33fb93b16db09dc6f1d9d7d231b08760070160009054906101000a900473ffffffffffffffffffffffffffffffffffffffff168660405161096d929190611756565b60405180910390a250505050505050565b60005481565b60006001600084815260200190815260200160002090508060070160149054906101000a900460ff16156109ed576040517f08c379a00000000000000000000000000000000000000000000000000000000081526004016109e4906117cb565b60405180910390fd5b8060060160009054906101000a900473ffffffffffffffffffffffffffffffffffffffff1673ffffffffffffffffffffffffffffffffffffffff163373ffffffffffffffffffffffffffffffffffffffff1614610a7f576040517f08c379a0000000000000000000000000000000000000000000000000000000008152600401610a769061185d565b60405180910390fd5b818160070160006101000a81548173ffffffffffffffffffffffffffffffffffffffff021916908373ffffffffffffffffffffffffffffffffffffffff16021790555060018160070160146101000a81548160ff021916908315150217905550827f20d7bf8e3e726efb1668ee6433c7a95fcb93d6221665931383641ea4611b086b83604051610b0f9190611005565b60405180910390a2734a0051552a8a8da192f9ab73b7245e4a233e353a73ffffffffffffffffffffffffffffffffffffffff166108fc349081150290604051600060405180830381858888f19350505050158015610b71573d6000803e3d6000fd5b50505050565b600060016000838152602001908152602001600020905060018160070160146101000a81548160ff0219169083151502179055505050565b6000604051905090565b600080fd5b600080fd5b600080fd5b600080fd5b6000601f19601f8301169050919050565b7f4e487b7100000000000000000000000000000000000000000000000000000000600052604160045260246000fd5b610c1682610bcd565b810181811067ffffffffffffffff82111715610c3557610c34610bde565b5b80604052505050565b6000610c48610baf565b9050610c548282610c0d565b919050565b600067ffffffffffffffff821115610c7457610c73610bde565b5b610c7d82610bcd565b9050602081019050919050565b82818337600083830152505050565b6000610cac610ca784610c59565b610c3e565b905082815260208101848484011115610cc857610cc7610bc8565b5b610cd3848285610c8a565b509392505050565b600082601f830112610cf057610cef610bc3565b5b8135610d00848260208601610c99565b91505092915050565b6000819050919050565b610d1c81610d09565b8114610d2757600080fd5b50565b600081359050610d3981610d13565b92915050565b600080600080600060a08688031215610d5b57610d5a610bb9565b5b600086013567ffffffffffffffff811115610d7957610d78610bbe565b5b610d8588828901610cdb565b955050602086013567ffffffffffffffff811115610da657610da5610bbe565b5b610db288828901610cdb565b945050604086013567ffffffffffffffff811115610dd357610dd2610bbe565b5b610ddf88828901610cdb565b935050606086013567ffffffffffffffff811115610e0057610dff610bbe565b5b610e0c88828901610cdb565b9250506080610e1d88828901610d2a565b9150509295509295909350565b610e3381610d09565b82525050565b6000602082019050610e4e6000830184610e2a565b92915050565b600060208284031215610e6a57610e69610bb9565b5b6000610e7884828501610d2a565b91505092915050565b600081519050919050565b600082825260208201905092915050565b60005b83811015610ebb578082015181840152602081019050610ea0565b60008484015250505050565b6000610ed282610e81565b610edc8185610e8c565b9350610eec818560208601610e9d565b610ef581610bcd565b840191505092915050565b600073ffffffffffffffffffffffffffffffffffffffff82169050919050565b6000610f2b82610f00565b9050919050565b610f3b81610f20565b82525050565b60008115159050919050565b610f5681610f41565b82525050565b600061012082019050610f72600083018c610e2a565b8181036020830152610f84818b610ec7565b90508181036040830152610f98818a610ec7565b90508181036060830152610fac8189610ec7565b90508181036080830152610fc08188610ec7565b9050610fcf60a0830187610e2a565b610fdc60c0830186610f32565b610fe960e0830185610f32565b610ff7610100830184610f4d565b9a9950505050505050505050565b600060208201905061101a6000830184610f32565b92915050565b61102981610f20565b811461103457600080fd5b50565b60008135905061104681611020565b92915050565b6000806040838503121561106357611062610bb9565b5b600061107185828601610d2a565b925050602061108285828601611037565b9150509250929050565b7f4e487b7100000000000000000000000000000000000000000000000000000000600052601160045260246000fd5b60006110c682610d09565b91507fffffffffffffffffffffffffffffffffffffffffffffffffffffffffffffffff82036110f8576110f761108c565b5b600182019050919050565b7f4e487b7100000000000000000000000000000000000000000000000000000000600052602260045260246000fd5b6000600282049050600182168061114a57607f821691505b60208210810361115d5761115c611103565b5b50919050565b60008190508160005260206000209050919050565b60006020601f8301049050919050565b600082821b905092915050565b6000600883026111c57fffffffffffffffffffffffffffffffffffffffffffffffffffffffffffffffff82611188565b6111cf8683611188565b95508019841693508086168417925050509392505050565b6000819050919050565b600061120c61120761120284610d09565b6111e7565b610d09565b9050919050565b6000819050919050565b611226836111f1565b61123a61123282611213565b848454611195565b825550505050565b600090565b61124f611242565b61125a81848461121d565b505050565b5b8181101561127e57611273600082611247565b600181019050611260565b5050565b601f8211156112c35761129481611163565b61129d84611178565b810160208510156112ac578190505b6112c06112b885611178565b83018261125f565b50505b505050565b600082821c905092915050565b60006112e6600019846008026112c8565b1980831691505092915050565b60006112ff83836112d5565b9150826002028217905092915050565b61131882610e81565b67ffffffffffffffff81111561133157611330610bde565b5b61133b8254611132565b611346828285611282565b600060209050601f8311600181146113795760008415611367578287015190505b61137185826112f3565b8655506113d9565b601f19841661138786611163565b60005b828110156113af5784890151825560018201915060208501945060208101905061138a565b868310156113cc57848901516113c8601f8916826112d5565b8355505b6001600288020188555050505b505050505050565b600060c08201905081810360008301526113fb8189610ec7565b9050818103602083015261140f8188610ec7565b905081810360408301526114238187610ec7565b905081810360608301526114378186610ec7565b90506114466080830185610e2a565b61145360a0830184610f32565b979650505050505050565b7f50726f6a656374206e6f742074616b656e207965740000000000000000000000600082015250565b6000611494601583610e8c565b915061149f8261145e565b602082019050919050565b600060208201905081810360008301526114c381611487565b9050919050565b7f4f6e6c792070726f6a656374206f776e65722063616e2072656c65617365207060008201527f61796d656e740000000000000000000000000000000000000000000000000000602082015250565b6000611526602683610e8c565b9150611531826114ca565b604082019050919050565b6000602082019050818103600083015261155581611519565b9050919050565b600061156782610d09565b915061157283610d09565b925082820261158081610d09565b915082820484148315176115975761159661108c565b5b5092915050565b7f4e487b7100000000000000000000000000000000000000000000000000000000600052601260045260246000fd5b60006115d882610d09565b91506115e383610d09565b9250826115f3576115f261159e565b5b828204905092915050565b600061160982610d09565b915061161483610d09565b925082820390508181111561162c5761162b61108c565b5b92915050565b7f4661696c656420746f2073656e64207061796d656e7420746f20667265656c6160008201527f6e63657200000000000000000000000000000000000000000000000000000000602082015250565b600061168e602483610e8c565b915061169982611632565b604082019050919050565b600060208201905081810360008301526116bd81611681565b9050919050565b7f4661696c656420746f2073656e64207061796d656e7420746f2044485542584f60008201527f4e00000000000000000000000000000000000000000000000000000000000000602082015250565b6000611720602183610e8c565b915061172b826116c4565b604082019050919050565b6000602082019050818103600083015261174f81611713565b9050919050565b600060408201905061176b6000830185610f32565b6117786020830184610e2a565b9392505050565b7f50726f6a65637420616c72656164792074616b656e0000000000000000000000600082015250565b60006117b5601583610e8c565b91506117c08261177f565b602082019050919050565b600060208201905081810360008301526117e4816117a8565b9050919050565b7f4f6e6c792070726f6a656374206f776e65722063616e2074616b652070726f6a60008201527f6563740000000000000000000000000000000000000000000000000000000000602082015250565b6000611847602383610e8c565b9150611852826117eb565b604082019050919050565b600060208201905081810360008301526118768161183a565b905091905056fea2646970667358221220063a036e77bb87557986b08cae74556d4365c4236573c8750f0ffcfd16e45ba064736f6c63430008110033",
  "linkReferences": {},
  "deployedLinkReferences": {}
}