{
  "_format": "hh-sol-artifact-1",
  "contractName": "ECommerce",
  "sourceName": "contracts/Products.sol",
  "abi": [
    {
      "anonymous": false,
      "inputs": [
        {
          "indexed": true,
          "internalType": "uint256",
          "name": "productId",
          "type": "uint256"
        },
        {
          "indexed": false,
          "internalType": "address",
          "name": "buyer",
          "type": "address"
        },
        {
          "indexed": false,
          "internalType": "uint256",
          "name": "price",
          "type": "uint256"
        }
      ],
      "name": "ProductPurchased",
      "type": "event"
    },
    {
      "anonymous": false,
      "inputs": [
        {
          "indexed": true,
          "internalType": "uint256",
          "name": "productId",
          "type": "uint256"
        },
        {
          "indexed": false,
          "internalType": "string",
          "name": "description",
          "type": "string"
        },
        {
          "indexed": false,
          "internalType": "address",
          "name": "uploader",
          "type": "address"
        },
        {
          "indexed": false,
          "internalType": "uint256",
          "name": "price",
          "type": "uint256"
        }
      ],
      "name": "ProductUploaded",
      "type": "event"
    },
    {
      "inputs": [],
      "name": "latestProductId",
      "outputs": [
        {
          "internalType": "uint256",
          "name": "",
          "type": "uint256"
        }
      ],
      "stateMutability": "view",
      "type": "function"
    },
    {
      "inputs": [
        {
          "internalType": "uint256",
          "name": "",
          "type": "uint256"
        }
      ],
      "name": "products",
      "outputs": [
        {
          "internalType": "string",
          "name": "description",
          "type": "string"
        },
        {
          "internalType": "address",
          "name": "uploader",
          "type": "address"
        },
        {
          "internalType": "uint256",
          "name": "price",
          "type": "uint256"
        }
      ],
      "stateMutability": "view",
      "type": "function"
    },
    {
      "inputs": [
        {
          "internalType": "uint256",
          "name": "_productId",
          "type": "uint256"
        }
      ],
      "name": "purchase",
      "outputs": [],
      "stateMutability": "payable",
      "type": "function"
    },
    {
      "inputs": [
        {
          "internalType": "string",
          "name": "_description",
          "type": "string"
        },
        {
          "internalType": "uint256",
          "name": "_price",
          "type": "uint256"
        }
      ],
      "name": "uploadProduct",
      "outputs": [
        {
          "internalType": "uint256",
          "name": "",
          "type": "uint256"
        }
      ],
      "stateMutability": "nonpayable",
      "type": "function"
    }
  ],
  "bytecode": "0x608060405234801561001057600080fd5b50610c0f806100206000396000f3fe60806040526004361061003f5760003560e01c80633d1c1c531461004457806351518858146100815780637acc0b20146100ac578063efef39a1146100eb575b600080fd5b34801561005057600080fd5b5061006b600480360381019061006691906105d2565b610107565b604051610078919061063d565b60405180910390f35b34801561008d57600080fd5b50610096610219565b6040516100a3919061063d565b60405180910390f35b3480156100b857600080fd5b506100d360048036038101906100ce9190610658565b61021f565b6040516100e293929190610745565b60405180910390f35b61010560048036038101906101009190610658565b6102f1565b005b60006001600081548092919061011c906107b2565b919050555060405180606001604052808481526020013373ffffffffffffffffffffffffffffffffffffffff168152602001838152506000806001548152602001908152602001600020600082015181600001908161017b9190610a06565b5060208201518160010160006101000a81548173ffffffffffffffffffffffffffffffffffffffff021916908373ffffffffffffffffffffffffffffffffffffffff160217905550604082015181600201559050506001547f2f44a9eb729e1c5a5b180cdfa2bb8d6bf7e6a8c6cbc6e6f5fa96dd3d14fc058284338560405161020693929190610745565b60405180910390a2600154905092915050565b60015481565b600060205280600052604060002060009150905080600001805461024290610829565b80601f016020809104026020016040519081016040528092919081815260200182805461026e90610829565b80156102bb5780601f10610290576101008083540402835291602001916102bb565b820191906000526020600020905b81548152906001019060200180831161029e57829003601f168201915b5050505050908060010160009054906101000a900473ffffffffffffffffffffffffffffffffffffffff16908060020154905083565b60008060008381526020019081526020016000209050600081600201541161034e576040517f08c379a000000000000000000000000000000000000000000000000000000000815260040161034590610b24565b60405180910390fd5b3481600201541115610395576040517f08c379a000000000000000000000000000000000000000000000000000000000815260040161038c90610b90565b60405180910390fd5b8060010160009054906101000a900473ffffffffffffffffffffffffffffffffffffffff1673ffffffffffffffffffffffffffffffffffffffff166108fc349081150290604051600060405180830381858888f193505050501580156103ff573d6000803e3d6000fd5b50817fa530f889d7f1bd9a73028e48944ca013ab2c6624a31e3fa26f923f4bb719abd5338360020154604051610436929190610bb0565b60405180910390a25050565b6000604051905090565b600080fd5b600080fd5b600080fd5b600080fd5b6000601f19601f8301169050919050565b7f4e487b7100000000000000000000000000000000000000000000000000000000600052604160045260246000fd5b6104a982610460565b810181811067ffffffffffffffff821117156104c8576104c7610471565b5b80604052505050565b60006104db610442565b90506104e782826104a0565b919050565b600067ffffffffffffffff82111561050757610506610471565b5b61051082610460565b9050602081019050919050565b82818337600083830152505050565b600061053f61053a846104ec565b6104d1565b90508281526020810184848401111561055b5761055a61045b565b5b61056684828561051d565b509392505050565b600082601f83011261058357610582610456565b5b813561059384826020860161052c565b91505092915050565b6000819050919050565b6105af8161059c565b81146105ba57600080fd5b50565b6000813590506105cc816105a6565b92915050565b600080604083850312156105e9576105e861044c565b5b600083013567ffffffffffffffff81111561060757610606610451565b5b6106138582860161056e565b9250506020610624858286016105bd565b9150509250929050565b6106378161059c565b82525050565b6000602082019050610652600083018461062e565b92915050565b60006020828403121561066e5761066d61044c565b5b600061067c848285016105bd565b91505092915050565b600081519050919050565b600082825260208201905092915050565b60005b838110156106bf5780820151818401526020810190506106a4565b60008484015250505050565b60006106d682610685565b6106e08185610690565b93506106f08185602086016106a1565b6106f981610460565b840191505092915050565b600073ffffffffffffffffffffffffffffffffffffffff82169050919050565b600061072f82610704565b9050919050565b61073f81610724565b82525050565b6000606082019050818103600083015261075f81866106cb565b905061076e6020830185610736565b61077b604083018461062e565b949350505050565b7f4e487b7100000000000000000000000000000000000000000000000000000000600052601160045260246000fd5b60006107bd8261059c565b91507fffffffffffffffffffffffffffffffffffffffffffffffffffffffffffffffff82036107ef576107ee610783565b5b600182019050919050565b7f4e487b7100000000000000000000000000000000000000000000000000000000600052602260045260246000fd5b6000600282049050600182168061084157607f821691505b602082108103610854576108536107fa565b5b50919050565b60008190508160005260206000209050919050565b60006020601f8301049050919050565b600082821b905092915050565b6000600883026108bc7fffffffffffffffffffffffffffffffffffffffffffffffffffffffffffffffff8261087f565b6108c6868361087f565b95508019841693508086168417925050509392505050565b6000819050919050565b60006109036108fe6108f98461059c565b6108de565b61059c565b9050919050565b6000819050919050565b61091d836108e8565b6109316109298261090a565b84845461088c565b825550505050565b600090565b610946610939565b610951818484610914565b505050565b5b818110156109755761096a60008261093e565b600181019050610957565b5050565b601f8211156109ba5761098b8161085a565b6109948461086f565b810160208510156109a3578190505b6109b76109af8561086f565b830182610956565b50505b505050565b600082821c905092915050565b60006109dd600019846008026109bf565b1980831691505092915050565b60006109f683836109cc565b9150826002028217905092915050565b610a0f82610685565b67ffffffffffffffff811115610a2857610a27610471565b5b610a328254610829565b610a3d828285610979565b600060209050601f831160018114610a705760008415610a5e578287015190505b610a6885826109ea565b865550610ad0565b601f198416610a7e8661085a565b60005b82811015610aa657848901518255600182019150602085019450602081019050610a81565b86831015610ac35784890151610abf601f8916826109cc565b8355505b6001600288020188555050505b505050505050565b7f50726f6475637420646f6573206e6f7420657869737400000000000000000000600082015250565b6000610b0e601683610690565b9150610b1982610ad8565b602082019050919050565b60006020820190508181036000830152610b3d81610b01565b9050919050565b7f496e73756666696369656e742066756e64730000000000000000000000000000600082015250565b6000610b7a601283610690565b9150610b8582610b44565b602082019050919050565b60006020820190508181036000830152610ba981610b6d565b9050919050565b6000604082019050610bc56000830185610736565b610bd2602083018461062e565b939250505056fea26469706673582212208a9052987d9f733224ff595ca468fde4250290fe81ca074d70467e34c1156c2764736f6c63430008110033",
  "linkReferences": {},
  "deployedLinkReferences": {}
}