{
  "_format": "hh-sol-artifact-1",
  "contractName": "ECommerce",
  "sourceName": "contracts/Products.sol",
  "abi": [
    {
      "anonymous": false,
      "inputs": [
        {
          "indexed": true,
          "internalType": "uint256",
          "name": "productId",
          "type": "uint256"
        },
        {
          "indexed": false,
          "internalType": "address",
          "name": "buyer",
          "type": "address"
        },
        {
          "indexed": false,
          "internalType": "uint256",
          "name": "price",
          "type": "uint256"
        }
      ],
      "name": "ProductPurchased",
      "type": "event"
    },
    {
      "anonymous": false,
      "inputs": [
        {
          "indexed": true,
          "internalType": "uint256",
          "name": "productId",
          "type": "uint256"
        },
        {
          "indexed": false,
          "internalType": "string",
          "name": "description",
          "type": "string"
        },
        {
          "indexed": false,
          "internalType": "address",
          "name": "uploader",
          "type": "address"
        },
        {
          "indexed": false,
          "internalType": "uint256",
          "name": "price",
          "type": "uint256"
        }
      ],
      "name": "ProductUploaded",
      "type": "event"
    },
    {
      "inputs": [],
      "name": "latestProductId",
      "outputs": [
        {
          "internalType": "uint256",
          "name": "",
          "type": "uint256"
        }
      ],
      "stateMutability": "view",
      "type": "function"
    },
    {
      "inputs": [
        {
          "internalType": "uint256",
          "name": "",
          "type": "uint256"
        }
      ],
      "name": "products",
      "outputs": [
        {
          "internalType": "string",
          "name": "description",
          "type": "string"
        },
        {
          "internalType": "address",
          "name": "uploader",
          "type": "address"
        },
        {
          "internalType": "uint256",
          "name": "price",
          "type": "uint256"
        }
      ],
      "stateMutability": "view",
      "type": "function"
    },
    {
      "inputs": [
        {
          "internalType": "uint256",
          "name": "_productId",
          "type": "uint256"
        }
      ],
      "name": "purchase",
      "outputs": [],
      "stateMutability": "payable",
      "type": "function"
    },
    {
      "inputs": [
        {
          "internalType": "string",
          "name": "_description",
          "type": "string"
        },
        {
          "internalType": "uint256",
          "name": "_price",
          "type": "uint256"
        }
      ],
      "name": "uploadProduct",
      "outputs": [
        {
          "internalType": "uint256",
          "name": "",
          "type": "uint256"
        }
      ],
      "stateMutability": "nonpayable",
      "type": "function"
    }
  ],
  "bytecode": "0x608060405234801561001057600080fd5b50610c09806100206000396000f3fe60806040526004361061003f5760003560e01c80633d1c1c531461004457806351518858146100815780637acc0b20146100ac578063efef39a1146100eb575b600080fd5b34801561005057600080fd5b5061006b600480360381019061006691906105ce565b610107565b6040516100789190610639565b60405180910390f35b34801561008d57600080fd5b50610096610219565b6040516100a39190610639565b60405180910390f35b3480156100b857600080fd5b506100d360048036038101906100ce9190610654565b61021f565b6040516100e293929190610741565b60405180910390f35b61010560048036038101906101009190610654565b6102f1565b005b60006001600081548092919061011c906107ae565b919050555060405180606001604052808481526020013373ffffffffffffffffffffffffffffffffffffffff168152602001838152506000806001548152602001908152602001600020600082015181600001908161017b9190610a02565b5060208201518160010160006101000a81548173ffffffffffffffffffffffffffffffffffffffff021916908373ffffffffffffffffffffffffffffffffffffffff160217905550604082015181600201559050506001547f2f44a9eb729e1c5a5b180cdfa2bb8d6bf7e6a8c6cbc6e6f5fa96dd3d14fc058284338560405161020693929190610741565b60405180910390a2600154905092915050565b60015481565b600060205280600052604060002060009150905080600001805461024290610825565b80601f016020809104026020016040519081016040528092919081815260200182805461026e90610825565b80156102bb5780601f10610290576101008083540402835291602001916102bb565b820191906000526020600020905b81548152906001019060200180831161029e57829003601f168201915b5050505050908060010160009054906101000a900473ffffffffffffffffffffffffffffffffffffffff16908060020154905083565b6000806000838152602001908152602001600020905060006064600a346103189190610ad4565b6103229190610b45565b9050600081346103329190610b76565b9050734a0051552a8a8da192f9ab73b7245e4a233e353a73ffffffffffffffffffffffffffffffffffffffff166108fc839081150290604051600060405180830381858888f1935050505015801561038e573d6000803e3d6000fd5b508260010160009054906101000a900473ffffffffffffffffffffffffffffffffffffffff1673ffffffffffffffffffffffffffffffffffffffff166108fc829081150290604051600060405180830381858888f193505050501580156103f9573d6000803e3d6000fd5b50837fa530f889d7f1bd9a73028e48944ca013ab2c6624a31e3fa26f923f4bb719abd5338560020154604051610430929190610baa565b60405180910390a250505050565b6000604051905090565b600080fd5b600080fd5b600080fd5b600080fd5b6000601f19601f8301169050919050565b7f4e487b7100000000000000000000000000000000000000000000000000000000600052604160045260246000fd5b6104a58261045c565b810181811067ffffffffffffffff821117156104c4576104c361046d565b5b80604052505050565b60006104d761043e565b90506104e3828261049c565b919050565b600067ffffffffffffffff8211156105035761050261046d565b5b61050c8261045c565b9050602081019050919050565b82818337600083830152505050565b600061053b610536846104e8565b6104cd565b90508281526020810184848401111561055757610556610457565b5b610562848285610519565b509392505050565b600082601f83011261057f5761057e610452565b5b813561058f848260208601610528565b91505092915050565b6000819050919050565b6105ab81610598565b81146105b657600080fd5b50565b6000813590506105c8816105a2565b92915050565b600080604083850312156105e5576105e4610448565b5b600083013567ffffffffffffffff8111156106035761060261044d565b5b61060f8582860161056a565b9250506020610620858286016105b9565b9150509250929050565b61063381610598565b82525050565b600060208201905061064e600083018461062a565b92915050565b60006020828403121561066a57610669610448565b5b6000610678848285016105b9565b91505092915050565b600081519050919050565b600082825260208201905092915050565b60005b838110156106bb5780820151818401526020810190506106a0565b60008484015250505050565b60006106d282610681565b6106dc818561068c565b93506106ec81856020860161069d565b6106f58161045c565b840191505092915050565b600073ffffffffffffffffffffffffffffffffffffffff82169050919050565b600061072b82610700565b9050919050565b61073b81610720565b82525050565b6000606082019050818103600083015261075b81866106c7565b905061076a6020830185610732565b610777604083018461062a565b949350505050565b7f4e487b7100000000000000000000000000000000000000000000000000000000600052601160045260246000fd5b60006107b982610598565b91507fffffffffffffffffffffffffffffffffffffffffffffffffffffffffffffffff82036107eb576107ea61077f565b5b600182019050919050565b7f4e487b7100000000000000000000000000000000000000000000000000000000600052602260045260246000fd5b6000600282049050600182168061083d57607f821691505b6020821081036108505761084f6107f6565b5b50919050565b60008190508160005260206000209050919050565b60006020601f8301049050919050565b600082821b905092915050565b6000600883026108b87fffffffffffffffffffffffffffffffffffffffffffffffffffffffffffffffff8261087b565b6108c2868361087b565b95508019841693508086168417925050509392505050565b6000819050919050565b60006108ff6108fa6108f584610598565b6108da565b610598565b9050919050565b6000819050919050565b610919836108e4565b61092d61092582610906565b848454610888565b825550505050565b600090565b610942610935565b61094d818484610910565b505050565b5b818110156109715761096660008261093a565b600181019050610953565b5050565b601f8211156109b65761098781610856565b6109908461086b565b8101602085101561099f578190505b6109b36109ab8561086b565b830182610952565b50505b505050565b600082821c905092915050565b60006109d9600019846008026109bb565b1980831691505092915050565b60006109f283836109c8565b9150826002028217905092915050565b610a0b82610681565b67ffffffffffffffff811115610a2457610a2361046d565b5b610a2e8254610825565b610a39828285610975565b600060209050601f831160018114610a6c5760008415610a5a578287015190505b610a6485826109e6565b865550610acc565b601f198416610a7a86610856565b60005b82811015610aa257848901518255600182019150602085019450602081019050610a7d565b86831015610abf5784890151610abb601f8916826109c8565b8355505b6001600288020188555050505b505050505050565b6000610adf82610598565b9150610aea83610598565b9250828202610af881610598565b91508282048414831517610b0f57610b0e61077f565b5b5092915050565b7f4e487b7100000000000000000000000000000000000000000000000000000000600052601260045260246000fd5b6000610b5082610598565b9150610b5b83610598565b925082610b6b57610b6a610b16565b5b828204905092915050565b6000610b8182610598565b9150610b8c83610598565b9250828203905081811115610ba457610ba361077f565b5b92915050565b6000604082019050610bbf6000830185610732565b610bcc602083018461062a565b939250505056fea2646970667358221220bb522b3741f2d2ee684d0d72b9865bef27b2c9cba0d88a5f328efd26b8f8b2be64736f6c63430008110033",
  "linkReferences": {},
  "deployedLinkReferences": {}
}