{
  "_format": "hh-sol-artifact-1",
  "contractName": "SubscriptionContract",
  "sourceName": "contracts/Subscription.sol",
  "abi": [
    {
      "inputs": [],
      "stateMutability": "nonpayable",
      "type": "constructor"
    },
    {
      "anonymous": false,
      "inputs": [
        {
          "indexed": true,
          "internalType": "address",
          "name": "userAddress",
          "type": "address"
        },
        {
          "indexed": false,
          "internalType": "uint256",
          "name": "amount",
          "type": "uint256"
        }
      ],
      "name": "SubscriptionClaimed",
      "type": "event"
    },
    {
      "anonymous": false,
      "inputs": [
        {
          "indexed": true,
          "internalType": "address",
          "name": "userAddress",
          "type": "address"
        },
        {
          "indexed": false,
          "internalType": "string",
          "name": "subscriptionType",
          "type": "string"
        },
        {
          "indexed": false,
          "internalType": "string",
          "name": "duration",
          "type": "string"
        },
        {
          "indexed": false,
          "internalType": "uint256",
          "name": "amount",
          "type": "uint256"
        },
        {
          "indexed": false,
          "internalType": "uint256",
          "name": "createdAt",
          "type": "uint256"
        }
      ],
      "name": "SubscriptionCreated",
      "type": "event"
    },
    {
      "inputs": [
        {
          "internalType": "uint256",
          "name": "_latest",
          "type": "uint256"
        }
      ],
      "name": "claimSubscription",
      "outputs": [],
      "stateMutability": "payable",
      "type": "function"
    },
    {
      "inputs": [
        {
          "internalType": "string",
          "name": "_subscriptionType",
          "type": "string"
        },
        {
          "internalType": "string",
          "name": "_duration",
          "type": "string"
        },
        {
          "internalType": "uint256",
          "name": "_amount",
          "type": "uint256"
        }
      ],
      "name": "createSubscription",
      "outputs": [
        {
          "internalType": "uint256",
          "name": "",
          "type": "uint256"
        }
      ],
      "stateMutability": "payable",
      "type": "function"
    },
    {
      "inputs": [],
      "name": "latestSubscriptionIndex",
      "outputs": [
        {
          "internalType": "uint256",
          "name": "",
          "type": "uint256"
        }
      ],
      "stateMutability": "view",
      "type": "function"
    },
    {
      "inputs": [],
      "name": "owner",
      "outputs": [
        {
          "internalType": "address payable",
          "name": "",
          "type": "address"
        }
      ],
      "stateMutability": "view",
      "type": "function"
    },
    {
      "inputs": [
        {
          "internalType": "uint256",
          "name": "",
          "type": "uint256"
        }
      ],
      "name": "subscriptions",
      "outputs": [
        {
          "internalType": "address",
          "name": "userAddress",
          "type": "address"
        },
        {
          "internalType": "string",
          "name": "subscriptionType",
          "type": "string"
        },
        {
          "internalType": "string",
          "name": "duration",
          "type": "string"
        },
        {
          "internalType": "uint256",
          "name": "amount",
          "type": "uint256"
        },
        {
          "internalType": "uint256",
          "name": "createdAt",
          "type": "uint256"
        },
        {
          "internalType": "bool",
          "name": "claimed",
          "type": "bool"
        }
      ],
      "stateMutability": "view",
      "type": "function"
    }
  ],
  "bytecode": "0x608060405234801561001057600080fd5b50336000806101000a81548173ffffffffffffffffffffffffffffffffffffffff021916908373ffffffffffffffffffffffffffffffffffffffff160217905550610d19806100606000396000f3fe60806040526004361061004a5760003560e01c806309b30e731461004f5780630f903ff81461007a5780632d5bbf60146100965780638da5cb5b146100d8578063936388be14610103575b600080fd5b34801561005b57600080fd5b50610064610133565b604051610071919061055c565b60405180910390f35b610094600480360381019061008f91906105b7565b610139565b005b3480156100a257600080fd5b506100bd60048036038101906100b891906105b7565b61023e565b6040516100cf969594939291906106d0565b60405180910390f35b3480156100e457600080fd5b506100ed6103b7565b6040516100fa9190610760565b60405180910390f35b61011d600480360381019061011891906108b0565b6103db565b60405161012a919061055c565b60405180910390f35b60015481565b600060026000838152602001908152602001600020905060018160050160006101000a81548160ff021916908315150217905550600081600301549050600082600301819055508160000160009054906101000a900473ffffffffffffffffffffffffffffffffffffffff1673ffffffffffffffffffffffffffffffffffffffff166108fc349081150290604051600060405180830381858888f193505050501580156101ea573d6000803e3d6000fd5b503373ffffffffffffffffffffffffffffffffffffffff167f257696373de307bdac54e24fa75f0d729bca2308dfbae6363878740d17f2144582604051610231919061055c565b60405180910390a2505050565b60026020528060005260406000206000915090508060000160009054906101000a900473ffffffffffffffffffffffffffffffffffffffff16908060010180546102879061096a565b80601f01602080910402602001604051908101604052809291908181526020018280546102b39061096a565b80156103005780601f106102d557610100808354040283529160200191610300565b820191906000526020600020905b8154815290600101906020018083116102e357829003601f168201915b5050505050908060020180546103159061096a565b80601f01602080910402602001604051908101604052809291908181526020018280546103419061096a565b801561038e5780601f106103635761010080835404028352916020019161038e565b820191906000526020600020905b81548152906001019060200180831161037157829003601f168201915b5050505050908060030154908060040154908060050160009054906101000a900460ff16905086565b60008054906101000a900473ffffffffffffffffffffffffffffffffffffffff1681565b6000600160008154809291906103f0906109ca565b919050555060006002600060015481526020019081526020016000209050338160000160006101000a81548173ffffffffffffffffffffffffffffffffffffffff021916908373ffffffffffffffffffffffffffffffffffffffff160217905550848160010190816104629190610bbe565b50838160020190816104749190610bbe565b50828160030181905550428160040181905550734a0051552a8a8da192f9ab73b7245e4a233e353a73ffffffffffffffffffffffffffffffffffffffff166108fc349081150290604051600060405180830381858888f193505050501580156104e1573d6000803e3d6000fd5b503373ffffffffffffffffffffffffffffffffffffffff167f1b94df57ae3046d508095453f54f479098c53b2a0066176abaaeda3154f996758686864260405161052e9493929190610c90565b60405180910390a26001549150509392505050565b6000819050919050565b61055681610543565b82525050565b6000602082019050610571600083018461054d565b92915050565b6000604051905090565b600080fd5b600080fd5b61059481610543565b811461059f57600080fd5b50565b6000813590506105b18161058b565b92915050565b6000602082840312156105cd576105cc610581565b5b60006105db848285016105a2565b91505092915050565b600073ffffffffffffffffffffffffffffffffffffffff82169050919050565b600061060f826105e4565b9050919050565b61061f81610604565b82525050565b600081519050919050565b600082825260208201905092915050565b60005b8381101561065f578082015181840152602081019050610644565b60008484015250505050565b6000601f19601f8301169050919050565b600061068782610625565b6106918185610630565b93506106a1818560208601610641565b6106aa8161066b565b840191505092915050565b60008115159050919050565b6106ca816106b5565b82525050565b600060c0820190506106e56000830189610616565b81810360208301526106f7818861067c565b9050818103604083015261070b818761067c565b905061071a606083018661054d565b610727608083018561054d565b61073460a08301846106c1565b979650505050505050565b600061074a826105e4565b9050919050565b61075a8161073f565b82525050565b60006020820190506107756000830184610751565b92915050565b600080fd5b600080fd5b7f4e487b7100000000000000000000000000000000000000000000000000000000600052604160045260246000fd5b6107bd8261066b565b810181811067ffffffffffffffff821117156107dc576107db610785565b5b80604052505050565b60006107ef610577565b90506107fb82826107b4565b919050565b600067ffffffffffffffff82111561081b5761081a610785565b5b6108248261066b565b9050602081019050919050565b82818337600083830152505050565b600061085361084e84610800565b6107e5565b90508281526020810184848401111561086f5761086e610780565b5b61087a848285610831565b509392505050565b600082601f8301126108975761089661077b565b5b81356108a7848260208601610840565b91505092915050565b6000806000606084860312156108c9576108c8610581565b5b600084013567ffffffffffffffff8111156108e7576108e6610586565b5b6108f386828701610882565b935050602084013567ffffffffffffffff81111561091457610913610586565b5b61092086828701610882565b9250506040610931868287016105a2565b9150509250925092565b7f4e487b7100000000000000000000000000000000000000000000000000000000600052602260045260246000fd5b6000600282049050600182168061098257607f821691505b6020821081036109955761099461093b565b5b50919050565b7f4e487b7100000000000000000000000000000000000000000000000000000000600052601160045260246000fd5b60006109d582610543565b91507fffffffffffffffffffffffffffffffffffffffffffffffffffffffffffffffff8203610a0757610a0661099b565b5b600182019050919050565b60008190508160005260206000209050919050565b60006020601f8301049050919050565b600082821b905092915050565b600060088302610a747fffffffffffffffffffffffffffffffffffffffffffffffffffffffffffffffff82610a37565b610a7e8683610a37565b95508019841693508086168417925050509392505050565b6000819050919050565b6000610abb610ab6610ab184610543565b610a96565b610543565b9050919050565b6000819050919050565b610ad583610aa0565b610ae9610ae182610ac2565b848454610a44565b825550505050565b600090565b610afe610af1565b610b09818484610acc565b505050565b5b81811015610b2d57610b22600082610af6565b600181019050610b0f565b5050565b601f821115610b7257610b4381610a12565b610b4c84610a27565b81016020851015610b5b578190505b610b6f610b6785610a27565b830182610b0e565b50505b505050565b600082821c905092915050565b6000610b9560001984600802610b77565b1980831691505092915050565b6000610bae8383610b84565b9150826002028217905092915050565b610bc782610625565b67ffffffffffffffff811115610be057610bdf610785565b5b610bea825461096a565b610bf5828285610b31565b600060209050601f831160018114610c285760008415610c16578287015190505b610c208582610ba2565b865550610c88565b601f198416610c3686610a12565b60005b82811015610c5e57848901518255600182019150602085019450602081019050610c39565b86831015610c7b5784890151610c77601f891682610b84565b8355505b6001600288020188555050505b505050505050565b60006080820190508181036000830152610caa818761067c565b90508181036020830152610cbe818661067c565b9050610ccd604083018561054d565b610cda606083018461054d565b9594505050505056fea2646970667358221220a6502ffa927d0b3b7f6880d4e0278323e83c38dfc0cd39b75c193ba0b5a2664564736f6c63430008110033",
  "linkReferences": {},
  "deployedLinkReferences": {}
}